:100000000C9463000C948B000C948B000C948B006C
:100010000C948B000C948B000C948B000C94EF02CE
:100020000C948B000C948B000C948B000C948B0024
:100030000C948B000C948B000C948B000C948B0014
:100040000C94A5020C948B000C9471030C944B033C
:100050000C948B000C948B000C948B000C948B00F4
:100060000C948B000C948B000200000000230026EF
:1000700000290000000000240027002A00000000E2
:1000800000250028002B00040404040404040402D6
:100090000202020202030303030303010204081025
:1000A00020408001020408102001020408102000F2
:1000B0000000080002010000030407000000000027
:1000C00000000000A30311241FBECFEFD8E0DEBF65
:1000D000CDBF11E0A0E0B1E0EAE9F0E102C0059097
:1000E0000D92A433B107D9F723E0A4E3B1E001C036
:1000F0001D92A833B207E1F710E0C3E6D0E004C0D8
:100100002197FE010E944508C236D107C9F70E9417
:1001100004040C944B080C940000833081F028F404
:10012000813099F08230A9F008958730A9F08830A5
:10013000C9F08430B1F4809180008F7D03C080913C
:1001400080008F7780938000089584B58F7784BD79
:10015000089584B58F7DFBCF8091B0008F77809319
:10016000B00008958091B0008F7DF9CF1F93CF9399
:10017000DF93282F30E0F901E155FF4F8491F90119
:10018000E556FF4FD491F901E957FF4FC491CC23B5
:10019000A9F0162F81110E948D00EC2FF0E0EE0FD8
:1001A000FF1FE358FF4FA591B4918FB7F894EC91DE
:1001B000111108C0D095DE23DC938FBFDF91CF9162
:1001C0001F910895DE2BF8CFCF93DF9390E0FC01D1
:1001D000E556FF4F249189579F4FFC018491882356
:1001E000D1F090E0880F991FFC01ED58FF4FA591C9
:1001F000B491FC01E358FF4FC591D491623071F482
:100200009FB7F8943C91822F809583238C93E8814B
:100210002E2B28839FBFDF91CF9108958FB7F8943D
:10022000EC912E2B2C938FBFF6CF3FB7F894809193
:100230004A0190914B01A0914C01B0914D0126B51E
:10024000A89B05C02F3F19F00196A11DB11D3FBF0E
:10025000BA2FA92F982F8827BC01CD01620F711DDD
:10026000811D911D42E0660F771F881F991F4A95D7
:10027000D1F708958F929F92AF92BF92CF92DF9263
:10028000EF92FF924B015C010E9415016B017C0112
:100290000E9415016C197D098E099F09683E734003
:1002A00081059105A8F321E0821A9108A108B108FF
:1002B00088EEC80E83E0D81EE11CF11C8114910465
:1002C000A104B10429F7FF90EF90DF90CF90BF9089
:1002D000AF909F908F90089590910C0189130BC05F
:1002E000E8E6F0E0E4919FEF90930C01E13049F0F3
:1002F00028F0E23061F060E00C94B60010926E00DD
:10030000FACF90916F009D7F90936F00F4CF909102
:1003100070009D7F9093700091E09093B000909159
:10032000B100987F94609093B1001092B300E3CF36
:10033000AF92BF92CF92DF92EF92FF920F931F93F3
:10034000CF93DF936C017B018B01040F151FEB0131
:100350005E01AE18BF08C017D10759F06991D601E8
:10036000ED91FC910190F081E02DC6010995892B5A
:1003700079F7C501DF91CF911F910F91FF90EF9019
:10038000DF90CF90BF90AF900895FC01538D448DC6
:10039000252F30E0842F90E0821B930B541710F030
:1003A000CF96089501970895FC01918D828D98173D
:1003B00061F0A28DAE0FBF2FB11D5D968C91928D15
:1003C0009F5F9F73928F90E008958FEF9FEF089546
:1003D000FC01918D828D981731F0828DE80FF11D0F
:1003E000858D90E008958FEF9FEF0895FC01918D2A
:1003F000228D892F90E0805C9F4F821B91098F7323
:10040000992708958EE491E00E94F60121E0892B5E
:1004100009F420E0822F089580E090E0892B29F0F4
:100420000E94020281110C9400000895FC01A48D29
:10043000A80FB92FB11DA35ABF4F2C91848D90E006
:1004400001968F739927848FA689B7892C93A089E9
:10045000B1898C91837080648C93938D848D981373
:1004600006C00288F389E02D80818F7D8083089506
:10047000EF92FF920F931F93CF93DF93EC0181E0F4
:10048000888F9B8D8C8D98131AC0E889F98980819B
:1004900085FF15C09FB7F894EE89FF896083E889CE
:1004A000F98980818370806480839FBF81E090E0C0
:1004B000DF91CF911F910F91FF90EF900895F62E4D
:1004C0000B8D10E00F5F1F4F0F731127E02E8C8DE7
:1004D0008E110CC00FB607FCFACFE889F98980812C
:1004E00085FFF5CFCE010E941602F1CFEB8DEC0F08
:1004F000FD2FF11DE35AFF4FF0829FB7F8940B8F49
:10050000EA89FB8980818062CFCFCF93DF93EC01B2
:10051000888D8823B9F0AA89BB89E889F9898C91EB
:1005200085FD03C0808186FD0DC00FB607FCF7CFA7
:100530008C9185FFF2CF808185FFEDCFCE010E94A7
:100540001602E9CFDF91CF9108951F920F920FB657
:100550000F9211242F933F938F939F93AF93BF9349
:100560008091460190914701A0914801B0914901C5
:100570003091450123E0230F2D3758F50196A11D39
:10058000B11D209345018093460190934701A093AC
:100590004801B093490180914A0190914B01A0918B
:1005A0004C01B0914D010196A11DB11D80934A01EE
:1005B00090934B01A0934C01B0934D01BF91AF912B
:1005C0009F918F913F912F910F900FBE0F901F9091
:1005D000189526E8230F0296A11DB11DD2CF1F92B8
:1005E0000F920FB60F9211242F933F934F935F9367
:1005F0006F937F938F939F93AF93BF93EF93FF93EB
:100600008091390190913A01A0913B01B0913C0158
:10061000892B8A2B8B2BD1F190913401E0913501FC
:10062000F0913601808189278083809139019091F2
:100630003A01A0913B01B0913C01181619061A0627
:100640001B069CF48091390190913A01A0913B01E5
:10065000B0913C010197A109B109809339019093B0
:100660003A01A0933B01B0933C01FF91EF91BF9100
:10067000AF919F918F917F916F915F914F913F913A
:100680002F910F900FBE0F901F90189580910C0125
:100690000E946C01EACF1F920F920FB60F921124A5
:1006A0002F933F934F935F936F937F938F939F937A
:1006B000AF93BF93EF93FF938EE491E00E941602F5
:1006C000FF91EF91BF91AF919F918F917F916F912A
:1006D0005F914F913F912F910F900FBE0F901F9000
:1006E00018951F920F920FB60F9211242F938F938C
:1006F0009F93EF93FF93E0915E01F0915F01808102
:10070000E0916401F091650182FD1BC090818091B0
:1007100067018F5F8F7320916801821741F0E0912C
:100720006701F0E0E25BFE4F958F80936701FF91D8
:10073000EF919F918F912F910F900FBE0F901F906F
:1007400018958081F4CF109251011092500188EEDB
:1007500093E0A0E0B0E08093520190935301A09306
:100760005401B093550181E191E090934F01809342
:100770004E0185EC90E090935B0180935A0184ECEC
:1007800090E090935D0180935C0180EC90E0909309
:100790005F0180935E0181EC90E090936101809312
:1007A000600182EC90E0909363018093620186EC9B
:1007B00090E090936501809364011092670110921C
:1007C00068011092690110926A0180E095E028E0CA
:1007D000280F899FF0011124DF01A557BD4F8C938D
:1007E00012961C921E921197DF01A551BE4FE5573C
:1007F000FD4F392F01900D923A95E1F78F5F8213EB
:10080000E8CF803221F70895CF93DF9300D000D056
:10081000CDB7DEB7789484B5826084BD84B581603D
:1008200084BD85B5826085BD85B5816085BD8091BB
:100830006E00816080936E00109281008091810033
:10084000826080938100809181008160809381002B
:10085000809180008160809380008091B1008460ED
:100860008093B1008091B00081608093B00080914E
:100870007A00846080937A0080917A00826080930D
:100880007A0080917A00816080937A0080917A006A
:10089000806880937A001092C100E0915E01F0912F
:1008A0005F0182E08083E0915A01F0915B01108248
:1008B000E0915C01F0915D018FEC80831092660104
:1008C000E0916201F091630186E08083E091600134
:1008D000F0916101808180618083E0916001F091FD
:1008E0006101808188608083E0916001F091610105
:1008F000808180688083E0916001F0916101808156
:100900008F7D808341E150E06FE171E08EE491E002
:100910000E94980142E050E061E371E08EE491E0D2
:100920000E9498018DE08093370387E590E09093D3
:10093000EF018093EE018CE590E09093F4018093B9
:10094000F30182E690E09093F9018093F80188E644
:1009500090E09093FE018093FD018EE690E09093ED
:1009600003028093020284E790E090930802809350
:1009700007028BE790E090930D0280930C0283E8CE
:1009800090E090931202809311028AE890E0909395
:1009900017028093160283E990E090931C028093E3
:1009A0001B028BE990E0909321028093200285EA5C
:1009B00090E090932602809325028FEA90E0909336
:1009C0002B0280932A0289EB90E09093300280936F
:1009D0002F0284EC90E0909335028093340280EDF6
:1009E00090E090933A02809339028CED90E09093DE
:1009F0003F0280933E0289EE90E090934402809300
:100A0000430287EF90E0909349028093480286E08A
:100A100091E090934E0280934D0285E191E0909396
:100A200053028093520286E291E0909358028093A1
:100A3000570287E391E090935D0280935C028AE421
:100A400091E090936202809361028DE591E0909332
:100A500067028093660282E791E090936C02809334
:100A60006B0288E891E090937102809370028FE9A5
:100A700091E0909376028093750288EB91E09093D9
:100A80007B0280937A0282ED91E0909380028093C2
:100A90007F028EEE91E090938502809384028BE03A
:100AA00092E090938A0280938902EBEEF1E0ABE84A
:100AB000B2E09D0181E090E04381548114965C9303
:100AC0004E93139712969C938E93119740814C935B
:100AD00092838183359615962E173F0769F788E034
:100AE00091E09A838983ACE0EA2EA1E0FA2E0BE232
:100AF00013E0E981FA818191FA83E983F801819316
:100B00008F0161E00E94E400E981FA81319761E0A0
:100B100080810E94B60089819A81E816F90649F71A
:100B2000E0E0F1E0FA83E9830FE213E0E981FA8182
:100B30008191FA83E983F80181938F0162E00E9439
:100B4000E40089819A818850914081F768EE73E0D2
:100B500080E090E00E943A0188248A94982C540105
:100B6000EBE22E2EE3E03E2E1C8260E0F10181914B
:100B70001F010E94B6001C81185F8FE293E09A83E8
:100B8000898305E09C81E92EF12CE981FA8121918C
:100B9000FA83E98330E0F901E155FF4F8491F901CF
:100BA000E556FF4FD490F901E957FF4F24912B836D
:100BB000222309F4FFC081110E948D008B81E82F50
:100BC000F0E0EE0FFF1FE759FF4FA591B491EC91B4
:100BD000DE2291E080E009F490E0292F382F0E9D6D
:100BE000F0010F9DF00D1124E551FE4FDF01AF55CF
:100BF000BF4F2D933C93818192818217930709F413
:100C0000B8C03283218380913703232B09F0F9C1C7
:100C1000C380D48090910C018913CFC0E8E6F0E046
:100C2000F491FB83F7FDA5C061E00E94E4002B81F5
:100C3000222321F08B81823009F095C1F12CE12C27
:100C400060E072E18AE790E0A70196010E94040843
:100C500029013A01DA01C9010197A109B1098F3FC0
:100C60009105A105B10509F00CF463C160E472E4DB
:100C70008FE090E0A70196010E94040821503109FD
:100C8000410951099B81923009F013C182E02F3F45
:100C900031054105510509F00CF45BC060E970EDC8
:100CA00083E090E0A70196010E94040821503109D9
:100CB0004109510983E02F3F31054105510509F0F4
:100CC0000CF447C068E478EE81E090E0A70196015B
:100CD0000E940408215031094109510984E02F3F45
:100CE000310541055105A9F1A4F164E274EF80E0FA
:100CF00090E0A70196010E940408215031094109A2
:100D0000510985E02F3F31054105510511F108F1E9
:100D100062E17AE780E090E0A70196010E94040872
:100D2000215031094109510986E02F3F3105410524
:100D3000510579F070F09AE0759467945794479450
:100D40009A95D1F7A3019201215031094109510926
:100D500087E09091B100987F892B8093B100FB814F
:100D6000F13009F42CC1F23009F43BC1FF2309F43E
:100D7000E9C02C812F5F2C83121304CF61E0F101B5
:100D8000319780810E94B600103209F0EECE6AE001
:100D900070E080E090E00E943A0180E090E0892BD2
:100DA00009F4DECE0E940202882309F4D9CE0E9403
:100DB0000000D6CE30E020E012CF9F3FD1F68093E6
:100DC0000C01E8E6F0E0F491FB83FF3F91F2F13093
:100DD00041F150F0F23009F446C09B8197FDC9CF34
:100DE00061E00E94E40026CF14BC15BC94B592606B
:100DF00094BD95B5916095BD282F30E0F901E95774
:100E0000FF4FE491F0E0EE0FFF1FE358FF4F4591D5
:100E10005491F901E556FF4FE491E09338011B82AC
:100E200003CF109280001092810090918100986011
:100E30009093810090918100916090938100282F80
:100E400030E0F901E957FF4FE491F0E0EE0FFF1FAA
:100E5000E358FF4F45915491F901E556FF4FE49156
:100E6000E0933701E1CE1092B0001092B100909162
:100E7000B00092609093B0009091B1009160909317
:100E8000B100282F30E0F901E957FF4FE491F0E07D
:100E9000EE0FFF1FE358FF4F4591549150933601D9
:100EA00040933501F901E556FF4FE491E093340199
:100EB000BBCE2F3F31054105510509F00CF451C05F
:100EC00068E478EE81E090E0A70196010E940408B2
:100ED0002150310941095109EB8184E0E11112CF20
:100EE00083E02F3F31054105510541F13CF162E1BD
:100EF0007AE780E090E0A70196010E940408215063
:100F000031094109510984E02F3F3105410551055F
:100F1000A9F0A0F08AE075946794579447948A9555
:100F2000D1F7A3019201215031094109510985E00E
:100F300005C09C0181E0FB81F1110BCF95B5987F35
:100F4000892B85BD27BD8092410190924201A092DC
:100F50004301B092440180916E00826080936E00E4
:100F600008CF82E0E8CFF12CE12C60E072E18AE763
:100F700090E0A70196010E9404082150310941091F
:100F8000510991E02115310581E0480751056CF0C8
:100F900068E478EE81E090E0A70196010E940408E1
:100FA000215031094109510993E0EB81E13009F009
:100FB000D6CE80918100887F892B809381003093E9
:100FC00089002093880080923D0190923E01A0927A
:100FD0003F01B092400180916F00826080936F006A
:100FE000C8CE2093B3008092390190923A01A0922A
:100FF0003B01B0923C018091700082608093700050
:10100000B8CE0E946C01B5CE052E97FB1EF400945D
:101010000E941B0857FD07D00E94230807FC03D03D
:101020004EF40C941B0850954095309521953F4FF8
:101030004F4F5F4F089590958095709561957F4FC4
:101040008F4F9F4F0895A1E21A2EAA1BBB1BFD01D3
:101050000DC0AA1FBB1FEE1FFF1FA217B307E40797
:10106000F50720F0A21BB30BE40BF50B661F771FEF
:10107000881F991F1A9469F76095709580959095CF
:101080009B01AC01BD01CF010895EE0FFF1F05903C
:0A109000F491E02D0994F894FFCFCD
:10109A0002030405060708090E0C0B0AFF000000EC
:1010AA000038029801C5018502F601D401E801540D
:1010BA0065636C6164696E686F206461204A75219A
:0410CA00000D0A000B
:00000001FF
